:020000040800F2
:100000000080002039290008C1240008C32400080A
:10001000C5240008C7240008C92400080000000007
:10002000000000000000000000000000CB240008D9
:10003000CD24000800000000CF240008D1240008CF
:1000400089290008892900088929000889290008C8
:1000500089290008892900088929000889290008B8
:1000600089290008892900088929000889290008A8
:100070008929000889290008892900088929000898
:100080008929000800000000892900088929000842
:100090008929000889290008892900088929000878
:1000A0008929000889290008892900088929000868
:1000B0008929000889290008892900088929000858
:1000C0008929000889290008892900088929000848
:1000D0008929000889290008892900088929000838
:1000E0008929000889290008892900088929000828
:1000F00089290008892900088929000800000000D2
:10010000000000008929000800000000892900087B
:1001100089290008000000008929000889290008B1
:1001200089290008892900088929000889290008E7
:10013000892900080000000000000000892900084B
:10014000892900088929000800000000000000003B
:10015000000000000000000000000000000000009F
:1001600000000000000000000000000089290008D5
:1001700089290008000000000000000000000000C5
:1001800000000000892900080000000000000000B5
:10019000000000000000000000000000000000005F
:1001A00000000000000000008929000889290008DB
:1001B0008929000889290008892900080000000011
:1001C0000000000089290008000000000000000075
:0801D0008929000889290008B3
:1001E0000348044B834202D0034B03B118477047C6
:1001F0006800002068000020000000000548064953
:100200000B1AD90F01EBA301491002D0034B03B124
:1002100018477047680000206800002000000000B8
:1002200010B5064C237843B9FFF7DAFF044B13B13E
:100230000448AFF300800123237010BD6800002044
:10024000000000008C29000808B5044B1BB10449CC
:100250000448AFF30080BDE80840CFE7000000008D
:100260006C0000208C29000870B50D4E0D4D761BDA
:10027000B61006D0002455F8043B01349847A64236
:10028000F9D1094E094D761B02F080FBB61006D05D
:10029000002455F8043B01349847A642F9D170BDBB
:1002A000B02C0008B02C0008B42C0008B02C0008BA
:1002B000844641EA000313F003036DD1403A41D371
:1002C00051F8043B40F8043B51F8043B40F8043B30
:1002D00051F8043B40F8043B51F8043B40F8043B20
:1002E00051F8043B40F8043B51F8043B40F8043B10
:1002F00051F8043B40F8043B51F8043B40F8043B00
:1003000051F8043B40F8043B51F8043B40F8043BEF
:1003100051F8043B40F8043B51F8043B40F8043BDF
:1003200051F8043B40F8043B51F8043B40F8043BCF
:1003300051F8043B40F8043B51F8043B40F8043BBF
:10034000403ABDD2303211D351F8043B40F8043B5F
:1003500051F8043B40F8043B51F8043B40F8043B9F
:1003600051F8043B40F8043B103AEDD20C3205D36F
:1003700051F8043B40F8043B043AF9D2043208D067
:10038000D2071CBF11F8013B00F8013B01D30B88D9
:1003900003806046704700BF082A13D38B078DD0B7
:1003A00010F003038AD0C3F10403D21ADB071CBF89
:1003B00011F8013B00F8013B80D331F8023B20F8F3
:1003C000023B7BE7043AD9D3013A11F8013B00F82C
:1003D000013BF9D20B7803704B7843708B788370B4
:1003E0006046704788420DD98B1883420AD900EBCA
:1003F000020CBAB1624613F801CD02F801CD994260
:10040000F9D170470F2A0ED8034602F1FF3C4AB1DA
:100410000CF1010C013B8C4411F8012B03F8012F66
:100420006145F9D1704740EA01039B0750D1A2F121
:10043000100370B501F1200C23F00F0501F1100E2F
:1004400000F11004AC441B095EF8105C44F8105C29
:100450005EF80C5C44F80C5C5EF8085C44F8085CE0
:100460005EF8045C44F8045C0EF1100EE64504F1FD
:100470001004E9D1013312F00C0F01EB031102F06B
:100480000F0400EB031327D0043C24F003064FEACB
:10049000940C1E441C1F8E465EF8045B44F8045FF7
:1004A000B442F9D10CF1010402F0030203EB84031E
:1004B00001EB840102F1FF3C4AB10CF1010C013B5C
:1004C0008C4411F8012B03F8012F6145F9D170BD5F
:1004D00002F1FF3C03469BE72246EBE7830730B57A
:1004E00048D0541E002A3FD0CAB2034601E0013C66
:1004F0003AD303F8012B9D07F9D1032C2DD9CDB2A6
:1005000045EA05250F2C45EA054536D9A4F1100228
:1005100022F00F0C03F1200EE6444FEA121C03F107
:10052000100242E9045542E9025510327245F8D1F1
:100530000CF1010214F00C0F03EB021204F00F0C8B
:1005400013D0ACF1040323F003030433134442F843
:10055000045B9342FBD10CF003042CB1CAB21C44DF
:1005600003F8012B9C42FBD130BD64461346002C9E
:10057000F4D1F9E703461446BFE71A46A446E0E77C
:100580000EB410B5044683B008B183695BB106AB05
:10059000A168059A0193204600F030FE03B0BDE843
:1005A000104003B0704700F027FCF0E70FB410B51F
:1005B0000A4B1C6882B00CB1A3695BB105ABA168A2
:1005C000049A0193204600F019FE02B0BDE81040E5
:1005D00004B07047204600F00FFCEFE70000002059
:1005E0002DE9F0410E460746002833D083697BB3DE
:1005F00084682F4B9C4237D02E4B9C423FD02E4BD1
:100600009C4208BFFC68A3891B0731D523697BB3D3
:100610003578B0463DB934E023685A1C22601D701D
:1006200018F8015F6DB3A368013B002BA360F3DAF8
:10063000A669B34229462246384601DB0A2DEBD192
:1006400000F004F90130EBD14FF0FF30BDE8F0814C
:1006500000F0D2FBBB69BC68002BCAD1384600F061
:10066000CBFB134B9C42C7D17C68A3891B07CDD41D
:100670002146384600F04EF90028C9D0E4E7BC68AE
:10068000C1E7A368013B002BA36009DA22460A21D7
:10069000384600F0DBF80130D6D00A20BDE8F08102
:1006A00023680A22591C21601A701046BDE8F081A7
:1006B000002A0008E0290008C0290008024B014672
:1006C0001868FFF78DBF00BF000000202DE9F04340
:1006D0005A4C276883B004460E4690461D4617B113
:1006E000BB69002B64D0564B9C4267D0554B9C4253
:1006F00066D0554B9C4208BFFC68B8F1020F06D08B
:10070000B8F1010F00F28680002DC0F283802146EF
:10071000384600F00BFA616B41B104F14403994291
:1007200002D0384600F06AFC00236363B4F90CC0C1
:1007300000231CF0800FA361636050D12CF44A6C3D
:100740002CF0030CB8F1020FA4F80CC04ED001AB92
:100750006A462146384600F013FCA3891843A0815D
:10076000002D2FD1009D284600F038FC06460028B9
:1007700053D0A38943F08003A381BB693BB3B4F991
:100780000C202660B8F1010F04BF42F00102A281E3
:1007900012F00800C4E9046593B21CD013F0010004
:1007A00034D000206D42A060A56103B0BDE8F083A5
:1007B000384600F021FB224B9C4297D17C689CE795
:1007C000BC689AE7002ECED0BB69002BD7D1384643
:1007D00000F012FBD3E7A06003B0BDE8F08321690D
:1007E000384600F00BFCB4F90CC0A7E7002004F178
:1007F00047034CF0020C00210122C4E90432A4F8A2
:100800000CC0A160236003B0BDE8F083A56003B015
:10081000BDE8F0834FF0FF30DEE7DDF80090A9453A
:1008200004D0484600F0DAFB064620B9B4F90CC003
:100830004FF0FF30DBE74D469BE700BF0000002094
:10084000002A0008E0290008C0290008F8B50D4674
:100850001446064608B1836943B3254B9C422AD00F
:10086000244B9C4229D0244B9C4208BFF468A389A6
:10087000A269A2601A0722D5236903B322686169BD
:10088000D31AEDB299422F4629DD0133A16801390F
:10089000A160511C2160157062699A4216D0A3892B
:1008A000DB0701D50A2D11D03846F8BD00F0A4FAB7
:1008B0000F4B9C42D4D17468D9E7B468D7E721467E
:1008C000304600F027F838B92369D7E7214630468B
:1008D00000F02CF90028E7D04FF0FF37E4E721467D
:1008E000304600F023F90028F6D122680123CDE735
:1008F000002A0008E0290008C029000810B4044CB0
:1009000003460A4620685DF8044B1946FFF79EBF70
:10091000000000203C4B70B51D6806460C460DB12A
:10092000AB69E3B1394B9C421FD0394B9C424DD04F
:10093000384B9C4208BFEC68B4F90C3018079AB2E7
:1009400019D5216911B312F001002FD00020A06049
:1009500060694042A06100292ED0002070BD284669
:1009600000F04AFA294B9C42DFD16C68B4F90C3094
:1009700018079AB2E5D4D1063ED5520728D421698A
:1009800043F00803A3819AB20029DCD102F420705D
:10099000B0F5007FD7D02146304600F091FAB4F987
:1009A0000C3021699AB212F00100CFD1950758BFDF
:1009B0006069A0600029D0D1120658BF0846CDD585
:1009C00043F04003A3814FF0FF3070BDAC68B3E744
:1009D000616B51B104F14402914204D0304600F001
:1009E0000DFBB4F90C300022626321690022C4E9D6
:1009F000001223F02403C3E7092243F040033260CE
:100A00004FF0FF30A38170BD00000020002A0008D5
:100A1000E0290008C02900088B891A072DE9F04158
:100A20000C4680463FD44A68002A58DDE66A002E0C
:100A300052D00022D8F80050C8F8002013F4805299
:100A400051D10123216A4046B047431C5ED0A3899F
:100A5000E66A5F0705D56368C01A636B0BB1236C48
:100A6000C01A216A024600234046B047411C3CD1CF
:100A7000D8F80030002B38D01D2B01D0162B4DD1CB
:100A800023690022C4E90032616BC8F8005019B331
:100A900004F14403994202D0404600F0AFFA00202E
:100AA0006063BDE8F0810E69B6B10D680E609A070B
:100AB0000CBF4B690023AD1B8B600BE02B4632460D
:100AC000216AA76A4046B847B0F1000CA5EB0C05B7
:100AD000664413DD002DF1DC0020BDE8F0810A6CD6
:100AE000002AA3DCF8E7606DB3E7002363602369A5
:100AF0002360A389DB04C7D56065C5E7A38943F0FC
:100B000040034FF0FF30A381BDE8F081D8F80030FA
:100B1000002B9CD01D2B06D0162B04D0A38943F0AC
:100B20004003A381D9E7C8F80050D5E738B50B6971
:100B3000BBB10D46044608B18369B3B10D4B9D426C
:100B400011D00D4B9D4213D00C4B9D4208BFE56860
:100B5000B5F90C302BB129462046BDE83840FFF7E7
:100B60005BBF002038BD6568F2E700F045F9E5E7B6
:100B7000A568EDE7002A0008E0290008C029000860
:100B800038B540B303690446E3B1174B1D680DB196
:100B9000AB69CBB1154B9C420FD0154B9C4221D079
:100BA000144B9C4208BFEC68B4F90C3053B1214699
:100BB0002846BDE83840FFF72FBF6C68B4F90C3009
:100BC000002BF4D1002038BD284600F015F9074B62
:100BD0009C42E2D1F1E7084B08491868BDE838406B
:100BE00000F04AB9AC68DFE700000020002A0008E6
:100BF000E0290008C0290008BC2900082D0B0008C6
:100C000000207047014900F037B900BF2D0B0008E4
:100C10000020704770B568224D1E02FB05F50E4698
:100C200005F1740100F04CFA044640B100210C308B
:100C3000C4E90016A06005F16802FFF74FFC2046EA
:100C400070BD00BF274B2DE9F0411E68B369074610
:100C500053B348364FF00408D6E90134013B04D5BC
:100C60001EE05A1C04F168041AD0B4F90C50013B80
:100C7000002DF6D11C4B6566C4E90055C4E902534A
:100C8000C4E90455A5610822294604F15C00FFF778
:100C900025FCC4E90D55C4E912552046BDE8F08194
:100CA00035682DB12E46D7E7304600F01FF8D0E763
:100CB0004FF4D671384600F003FA044668B1056077
:100CC000C0F804800C302946A06025464FF4D0724D
:100CD000FFF704FC34602E46BEE70C2330603B6017
:100CE000DBE700BFBC2900080100FFFF2DE9F84F3A
:100CF000344B35491A68816290424FF00003C0E9D5
:100D00001233036504BF012383610546FFF79AFF91
:100D100068602846FFF796FFA8602846FFF792FF15
:100D20006F68E86000240423C7E9024308222146D3
:100D3000C7E90044C7E904447C66BC6107F15C0074
:100D4000FFF7CCFBDFF88CB0AE68DFF88CA0DFF8E3
:100D50008C90DFF88C801D4BC7F828A0C7E9087B72
:100D6000C7F82C90C7F830800822F360C6E9004429
:100D7000C6E904447466B460B461214606F15C00BF
:100D8000FFF7ACFBC6E9086BC6E90AA9C6F83080D4
:100D9000EE680F4BF360C6E90044C6E9044474668C
:100DA000B460B4612146082206F15C00FFF796FBAF
:100DB0000123C6E9086BC6E90B98C6F828A0AB6109
:100DC000BDE8F88FBC290008050C000809000100E7
:100DD000120002009D180008C51800080519000837
:100DE00025190008024B0349186800F045B800BFF8
:100DF000BC2900082D0B0008836903B976E770470A
:100E0000704700BF704700BF704700BF704700BF0A
:100E1000024B0349186800F00FB800BF0000002023
:100E2000010C0008024B0349186800F005B800BF28
:100E300000000020110C00082DE9F041884600F167
:100E400048070026D7E90154013D0FD4A389012B9F
:100E500005F1FF3506D9B4F90E300133204601D033
:100E6000C04706436B1C04F16804EFD13F68002FB4
:100E7000E8D13046BDE8F0812DE9F84307468846C1
:100E800000F148064FF00009D6E90154013D11D4A4
:100E9000A389012B05F1FF3508D9B4F90E300133D0
:100EA000214603D03846C04749EA00096B1C04F1CB
:100EB0006804EDD13668002EE6D14846BDE8F883D7
:100EC000F0B58B890C46990797B007D504F1470315
:100ED0000122C4E90432236017B0F0BDB4F90E104A
:100EE000002905462DDB6A4600F048FD002827DB77
:100EF000019E06F470464FF48067A6F50056B6FAD8
:100F000086F639462846760900F0DAF830B3A38928
:100F10001A4AAA6243F08003C4E90407A38120604F
:100F2000002ED9D0B4F90E10284600F0B5FE0028E6
:100F3000D2D0A38923F0030343F00103A381CBE7BD
:100F4000A38913F0800F14BF40274FF48067394600
:100F50002846002600F0B4F80028D8D1B4F90C30A7
:100F60009A05B9D423F0030304F1470243F00203C6
:100F70000121C4E90421A3812260ADE7050C00082A
:100F800070B50C46B1F90E10002996B016461D46F4
:100F900013DB6A4600F0F2FC00280EDB019901F435
:100FA0007041A1F50051B1FA81F14FF48063490914
:100FB00000202960336016B070BDB4F90C300022F7
:100FC0001B062A6004D540230020336016B070BD94
:100FD0004FF480630020336016B070BD024B0146B1
:100FE000186800F06DB800BF00000020024B0146F9
:100FF000186800F003B800BF00000020002958D096
:1010000030B551F8043C83B0002BA1F10404B8BF03
:10101000E418019000F0BCFE284A0198136833B12F
:10102000A3420DD9216804EB010C63452FD0636006
:10103000146003B0BDE8304000F0ACBEA34210D84D
:101040001A465B68002BF9D1116802EB010C64456C
:1010500019D02FD36360546003B0BDE8304000F076
:1010600099BE116802EB010CA44516D022D8216864
:1010700004EB010C6345EDD11D685B682944C4E9AC
:1010800000135460D5E7236819441160D1E71D6847
:101090005B682944C4E90013CAE724682144541852
:1010A000A3421160C5D1D3E900432144C2E9001332
:1010B000BFE770470C230360BBE700BF840000203C
:1010C000F8B5CD1C25F0030508350C2D38BF0C25CF
:1010D000002D064623DBA94221D8254F00F058FEFB
:1010E0003A6822B3144603E063682246FBB11C460B
:1010F00023685B1BF8D40B2B15D8636894420CBF94
:101100003B605360304600F045FE04F10B00231DA8
:1011100020F00700C21A01D01B1AA350F8BD0C23FF
:1011200033600020F8BD23601C442560EAE779683D
:10113000C9B12946304600F09FFB431C0CD0C41CAB
:1011400024F00304A04205D0211A304600F094FB9D
:10115000013001D02560D5E70C233046336000F024
:1011600019FE0020F8BD304600F086FB7860E0E70D
:10117000840000209368013B002B936011DA10B4C7
:101180009469A34209DB0A2907D01368581C106030
:10119000197008465DF8044B70475DF8044BFFF783
:1011A00055BB1368581C106019700846704700BF83
:1011B0009BB1F8B5134406460F46541E5D1E01E070
:1011C000AC4208D014F8011F3A463046FFF7D2FF70
:1011D000431CF5D1F8BD0020F8BD0020704700BFCA
:1011E000936810B5144613B95360184610BD00F04B
:1011F000DBFB0023C4E9013310BD00BF2DE9F04F34
:1012000088469FB015461C46814618B18369002B5D
:1012100000F0A280924B984500F0A480914B984535
:1012200000F0B180904B984508BFD9F80C80B8F811
:101230000C30180740F19D80D8F81030002B00F0DA
:10124000988000230B932978884E059420238DF8ED
:10125000313030238DF832300127002974D02C46EC
:101260000B4604E014F8013F002B00F08F80252B83
:10127000F8D1B4EB050B40F08C802378002B63D0C1
:1012800000234FF0FF32CDE90723069309938DF831
:101290005B301C93013404E0069A07FA03F313430E
:1012A00006932546052214F8011B304600F020FD68
:1012B000831B0028F0D1069BD90644BF20228DF85D
:1012C0005B2029781A0744BF2B228DF85B202A293E
:1012D00070D1059A1168043200290592C0F29B80F2
:1012E0000991697801352E2976D0614C0322204678
:1012F00000F0FEFC38B1069B001B402404FA00F00D
:1013000003430693013515F8011B5A488DF8301038
:10131000062200F0EDFC002800F08380564B002BE5
:101320006DD005AA0092554B424606A94846AFF338
:1013300000800390039B013306D00B9B039A29780E
:1013400013440B9300298AD1B8F80C305B0617D4EC
:101350000B981FB0BDE8F08FFFF74EFD404B98454E
:101360007FF45CAFD9F80480B8F80C3018073FF56B
:1013700063AF41464846FFF7CDFA00283FF461AF1E
:101380004FF0FF30E5E7D9F8088050E7B4EB050BE4
:10139000DAD0AA46C5F1010503E0934536D91AF81B
:1013A000011F42464846FFF7E5FE013005EB0A0201
:1013B000F3D1C9E7A1F13002092A94D8099B15F8A5
:1013C000011F03EB830302EB4303A1F13002092A5F
:1013D000F5D92E29099388D169782A292BD1059B23
:1013E000A9781A6807920433002A05F102000593D0
:1013F000B8BF4FF0FF330546B8BF079375E7059BAD
:10140000073323F007030833059396E70B9A2378F5
:101410005A440B9232E7494243F002030991069382
:101420005FE705AA0092154B424606A9484600F020
:10143000CBF803907EE7A1F130020023092A07933D
:1014400005F101053FF651AF15F8011F03EB8303CA
:1014500002EB4303A1F13002092AF5D9079344E7CF
:10146000002A0008E0290008C0290008742C0008A0
:101470007C2C0008802C000800000000B11100083E
:1014800010B4054C8446134620685DF8044B0A46A8
:101490006146FFF7B3BE00BF000000202DE9F84F02
:1014A00092461F460A698B68DDF828909A42B8BFB9
:1014B0001A46CAF8002091F843300C46064613B18C
:1014C0000132CAF80020226891065DD5DAF80030B2
:1014D0000233CAF80030226812F0060F11461ED1FE
:1014E000E168CB1A002BD8BF114618DD04F1190BA7
:1014F0004FF0000805E0E568DAF80030ED1A4545E0
:101500000CDD01235A4639463046C847013008F100
:101510000108F0D14FF0FF30BDE8F88F216894F852
:101520004330003B18BF01238A060AD5E1185A1C34
:10153000302081F84300224494F8451082F843108B
:10154000023304F1430239463046C8470130E1D046
:10155000236803F00603042B1DD0A368226993427D
:1015600025DD4FF000089B1A98441A34002501E04D
:1015700045451CDA0123224639463046C84701302A
:1015800005F10105F4D1C5E712F0060F12D0003BBA
:1015900018BF0123D5E7DAF80030E1682269C91ADB
:1015A000A368934221EAE178DDDC0029DDDC00203C
:1015B000BDE8F88FE168DAF80030CB1A002BD8BF0D
:1015C000114693DCABE700BF2DE9F0470C4684B031
:1015D0009046227E0C990746994604F14300002A62
:1015E00033D0A2F15803DDB2202D67D8202B65D867
:1015F000DFE813F0DE00640064006400640064004F
:1016000064006400640064006400A3006E00640071
:101610006400640064006E006400640064006400A0
:1016200021007F00C00064006400AE0064007F0001
:1016300064006400E50023681A0640F104810B6829
:1016400062691D1D0D601B681A60002382462361BC
:10165000CDF80090434603AA21463846FFF71EFF07
:10166000013020D02369524641463846C8470130F0
:1016700019D02368E068039E9B0719D5831B002BB4
:1016800016DD04F1190A002504E0E068039E831BBF
:10169000AB420DDD0123524641463846C847013072
:1016A00005F10105F1D14FF0FF3004B0BDE8F0873E
:1016B000B042B8BF304604B0BDE8F087012384F8DB
:1016C0004220236104F1420A002384F84330BFE73B
:1016D00023681A0602D45E0600F1C1800D682A68EC
:1016E00004350D601546002A6BDBDFF884C10A263D
:1016F00010E023681D0640F19C800B681D1D0D60E5
:101700001D68DFF86CC16F2A0CBF08260A2600236B
:1017100084F843306268A260002A7FDB236823F0EC
:1017200004032360002D5BD1002A79D18246082E64
:1017300065D0A0EB0A0020618AE70B6801221868D7
:1017400004330B6004F1420A84F842002261BBE7D3
:101750000B686268181D0860D3F800A0002150468D
:1017600000F0C6FA002800F08180A0EB0A0060605B
:101770002061A9E7236843F0200323607822DFF883
:10178000F4C084F845200A68151D0D601D0643D479
:10179000590641D51588DE0744BF43F02003236076
:1017A000002D44D1236823F0200323601026AEE7E8
:1017B000582384F84530DFF8B8C02368E3E723688E
:1017C000DCE76268A2602D21002AC5F1000584F8DB
:1017D000431002DB23F004032360DFF894C00A26E1
:1017E0008246B5FBF6F306FB13512A461CF801109E
:1017F0000AF8011DB2421D46F3D2082E99D1236882
:10180000D90796D5626823699A4292DC30230AF898
:10181000013C0AF1FF3A8CE71568BCE7002DDFD1E7
:101820009CF8003084F8423004F1420A7FE7102629
:101830006DE713F0400F0B6803F104050D600CBF5A
:101840001D681D885DE713F0400F0B68626903F1A6
:1018500004050D601B6814BF1A801A60F5E60A685B
:10186000B2F9005004320A602A463CE760687FE71C
:10187000882C00089C2C000838B5074D002204462F
:1018800008462A6000F044FE431C00D038BD2B6897
:10189000002BFBD0236038BD8C00002010B50C4617
:1018A000B1F90E1000F0A0FA002803DB636D0344C9
:1018B000636510BDA38923F48053A38110BD00BFCD
:1018C000002070472DE9F0410C46B1F90C101F467D
:1018D000CB05054616460BD421F48051A1813B4629
:1018E000B4F90E1032462846BDE8F04100F01EB8AB
:1018F000B4F90E100223002200F0E0F9B4F90C1044
:10190000EAE700BF10B50C46B1F90E1000F0D6F9A9
:10191000A389421C0EBF23F4805343F480536065B7
:10192000A38110BDB1F90E1000F016B838B50C4601
:10193000084D8446114620461A4600232B60644613
:1019400000F0CAFD431C00D038BD2B68002BFBD033
:10195000236038BD8C00002038B5074D00220446B6
:1019600008462A6000F0C7FD431C00D038BD2B6834
:10197000002BFBD0236038BD8C00002070B50C46D6
:10198000084D03460026204611461C462E6000F0F6
:10199000B7FD431C00D070BD2B68002BFBD023602B
:1019A00070BD00BF8C0000209368002B00F0858084
:1019B0002DE9F04FB1F90C300C461907804683B081
:1019C000174698B225D523691BB310F002033D6872
:1019D0002DD04FF0000ADFF8BCB25646B9465E453E
:1019E0003346524628BF5B464046002E52D0216AFD
:1019F000A76AB847002856DDD9F808301B1A824478
:101A0000361AC9F80830002BE9D1002003B0BDE830
:101A1000F08F21464046FEF77DFF002840F03681DA
:101A2000B4F90C303D6898B210F00203D1D110F037
:101A3000010944D14E46009746B38205D4F808B058
:101A400040F18380B3455A4600F2B28010F4906FA3
:101A500040F0BF80206801924946FEF7C3FCA368AE
:101A6000019AA3EB0B012368A1601344B2462360E3
:101A70000026009B9868A0EB0A00D14498600028DB
:101A8000C3D0B4F90C0080B2002ED6D1D5E90096AF
:101A90000835D1E7D5E900A60835A0E7214640463C
:101AA000FFF744F880B3B4F90C3043F040034FF033
:101AB000FF30A38103B0BDE8F08F002070471E46C1
:101AC000AA46994618461D46009756B388B34A461B
:101AD000D4E904132068B24228BF3246884205D9AF
:101AE000A16803EB010B5A4500F3A680934263DC27
:101AF000216AA76A2A464046B847B0F1000BD2DDFA
:101B0000B9EB0B09CAD00120009A9368A3EB0B0331
:101B10005D44A6EB0B069360002B3FF476AF002EDE
:101B2000D4D10AF1080353E902569A460833002E2D
:101B3000F9D032460A21284600F0DAF8002800F0F1
:101B40009C800130A0EB0509C1E720682369984219
:101B500016D86369B34213D86FF00042B24228BF6F
:101B60003246216A92FBF3F2A76A02FB03F3404676
:101B70004A46B847B0F1000A95DDA6EB0A0678E7B9
:101B8000B345DA4628BFB24652464946FEF72AFC1C
:101B9000A3682268A3EB0A035244A3602260002BCF
:101BA000EBD121464046FEF7C1FF0028E5D07AE799
:101BB0002068B34632464EE729460192FEF712FCF2
:101BC000019AA3689B1AA360236813442360934679
:101BD00096E723682169A3EB010B636903EB430AD2
:101BE0000AEBDA7A0BF101034FEA6A0A33445345F0
:101BF000524684BF9A46524643052CD5114640466C
:101C0000FFF75EFA00283BD05A4621690190FEF7A3
:101C10004FFBA289019B22F4906242F08002A281D4
:101C200003EB0B002361AAEB0B03C4F814A0A36021
:101C30002060B34632460EE729465A46FEF7D2FBED
:101C400023685B44236021464046FEF76FFF00286F
:101C50003FF456AF27E7404600F09EF803460028C1
:101C6000DED121694046FFF7C9F9B4F90C300C22E6
:101C700023F08003C8F8002017E7721C914627E77D
:101C80000C22B4F90C30C8F800200EE74FF0FF30FA
:101C9000BCE600BF00FCFF7F38B5074D00220446BC
:101CA00008462A6000F031FC431C00D038BD2B6888
:101CB000002BFBD0236038BD8C00002038B50C46CB
:101CC000084D8446114620461A4600232B60644680
:101CD00000F014FC431C00D038BD2B68002BFBD057
:101CE000236038BD8C0000200000000000000000D0
:101CF00001F0FF01102A2BDB10F0070F08D010F8BD
:101D0000013B013A8B422DD010F0070F42B3F6D1C0
:101D1000F0B441EA012141EA014122F007047FF0D9
:101D200000070023F0E80256083C85EA010586EA30
:101D3000010685FA47F5A3FA87F586FA47F6A5FA6C
:101D400087F68EB9EED1F0BC01F0FF0102F0070278
:101D500032B110F8013B013A83EA010313B1F8D123
:101D60000020704701387047002D06BF3546033804
:101D7000073815F0010F07D1013015F4807F02BF3D
:101D8000013015F4C03F0130F0BC0138704700BF8E
:101D9000704700BF704700BFF8B51446F9B1CAB12B
:101DA00006460D4600F036F8A04202D32F463846CC
:101DB000F8BD21463046FFF783F907460028F6D0E4
:101DC00022462946FEF774FA30462946FFF716F9EF
:101DD0003846F8BD2746FFF711F93846F8BDBDE88B
:101DE000F8401146FFF76CB938B50C46084D8446EB
:101DF000114620461A4600232B60644600F079FB0A
:101E0000431C00D038BD2B68002BFBD0236038BDAD
:101E10008C00002051F8040C0028A0F10400BCBF85
:101E20000B58C018704700BF0870C0F307234B70F1
:101E3000C0F307438B70000EC870704708B500F000
:101E400031FB08BDF0B587B004460E466AB11946AD
:101E50001023009302ABBDF83020304600F055FD52
:101E600048B90027384607B0F0BD102202A9304615
:101E700000F03FFDF4E7024602A9022000F0FEFB5D
:101E8000FFF7DCFF0E9BC518FFF7D8FFA8421DD255
:101E9000022000F007FC0028F6D0022000F012FC1F
:101EA0000146204600F0ECFC07460028ECD094F8F0
:101EB0000634B342E8D10D9B002BD3D040F202424E
:101EC00004F206411846FEF7F3F9CBE70027C9E70D
:101ED0002DE9F04F85B007460E4615469946BDF8E8
:101EE00038B0DDF83CA09DF84480002401E00134C6
:101EF000E4B244450FD2109B0293CDF804A0CDF874
:101F000000B04B462A4631463846FFF79BFF034652
:101F10000028ECD000E00023184605B0BDE8F08FA3
:101F200000B5ADF21C4D03230393FA23029305ABD6
:101F300001930022009213464F21FFF7C9FF50B1D1
:101F4000BDF8160040B19DF81830092B08D8054A95
:101F500032F8130000E000200DF21C4D5DF804FB88
:101F60000020F9E7602C000810B50446FFF766FF73
:101F7000001B10BD38B50546FFF760FF044600E0C2
:101F800000BF2046FFF7F0FFA842F9D338BDF0B5F7
:101F9000ADF21C4D06460D46C82302930024019461
:101FA0000094234622462146FFF74CFF032C28D8F5
:101FB0004FF4C873029305AB0193002100910B46C7
:101FC0000A463046FFF73EFF074628B93220FFF7A2
:101FD000D1FF0134E4B2E9E7BDF81640102C28BF68
:101FE0001024224606A92846FEF762F900232B5545
:101FF00001E001339BB2A34204D2EA5C002AF8D18B
:1020000000E0002738460DF21C4DF0BD2DE9F04FE1
:1020100093B000F03FFA9B4C0FAB94E8070083E8C5
:102020000700184600F004FB0CAB0C3494E80700E2
:1020300083E80700184600F0FBFA934B186800236A
:10204000022219468068FEF741FB904800F011FC1F
:102050008F48FEF733FB4FF4E1318E48FEF7A6FAC6
:102060004FF461218C48FEF7A1FA4FF4FA60FFF7B4
:1020700081FF02E0022000F025FB022000F012FBAD
:102080000028F7D100230793089309930A938DF84A
:102090002C3007A97D48FFF77AFF60B97F48FEF72B
:1020A0000DFB4FF09042536983F08003536164202D
:1020B000FFF760FFF5E707A97948FEF777FA06A969
:1020C0000020FFF7B1FE02230393C82302930023ED
:1020D00001930423009306AB01221E216B48FFF7F6
:1020E000F7FE1420FFF746FF02E0022000F0EAFAB4
:1020F000022000F0D7FA06460028F6D1634C2046AD
:1021000000F0B7FB2046FFF70BFF049010BB6548BB
:10211000FEF7D4FA06A90B20FFF786FE03230393EC
:10212000FA230293002301930423009306AB0122B8
:102130001E215648FFF7CCFE88B95B48FEF7BEFA71
:102140004FF09042536983F0800353616420FFF79E
:1021500011FFF5E704995548FEF728FADAE75448E5
:10216000FEF7ACFA5348FEF7A9FA484800F081FBA5
:10217000FFF764FE059000F57A7900F1FA0A002471
:10218000A04627465FE0414AD41894F80A445E1CF2
:10219000324492F80A24120212B2144302339BB260
:1021A000013080B20131C9B26646594502D29A1C4B
:1021B0007245E8D9074408F10108022000F072FADC
:1021C000E8B1022000F07EFA0146304800F058FBEA
:1021D00084460028F1D02D4B93F80634282BECD1FF
:1021E0002A4BB3F808E4BEF1000FE6D093F80AB426
:1021F000BBF1000FE1D0002108460123D5E7A94536
:1022000021D8A5EB09034FF47A7202FB07F79B185C
:10221000914400D10123B7FBF3F3059AAD1A06B33D
:102220002549A1FB05218909CDF808800194009377
:10223000049B4FF47A7202FB11522048FEF7B6F964
:102240004FF000084746FFF7F9FD05468245B4D830
:102250000AF1FA0A4FF09042536983F08003536108
:10226000ABE71549A1FB052189090093049B4FF4B5
:102270007A7202FB11521248FEF798F94FF00008EB
:102280004746E0E7A4290008000000209000002055
:10229000202A0008482A00086C2A0008902A000812
:1022A000C42A0008DC2A0008442B0008102B000870
:1022B0006C2B0008AC2B0008D34D6210E02B0008FB
:1022C000202C0008394A136843F480731360374B9D
:1022D0001B6813F4806FFAD0344A936823F0030329
:1022E00043F001039360314B9B6803F00C03042B14
:1022F000F9D12E4B9A6D42F080529A659B6D2C4A13
:10230000136823F4C06343F400731360284B5B69C4
:1023100013F4806FFAD1264AD2F8803023F4807308
:10232000C2F8803002F5D032136843F48033136072
:102330001E4B1B6813F4003FFAD01C4A136823F0AD
:1023400080731360194B1B6813F0007FFAD1174B91
:10235000184ADA601A6842F080721A60134B1B68E0
:1023600013F0007FFAD0144A136823F00F0343F0F0
:1023700004031360104B1B6803F00F03042BF9D107
:102380000A4A936823F47F5323F0300393609368E1
:1023900043F003039360054B9B6803F00C030C2B85
:1023A000F9D1064B064A1A60704700BF0010024080
:1023B00000700040535500010020024064000020DE
:1023C00080FE210A234BDA6C42F00102DA64DA6CF7
:1023D00042F00202DA64DB6C4FF0904310229A6103
:1023E0001A6822F4407242F480721A605A6822F02D
:1023F00010025A609A6822F440729A60164A116874
:1024000021F4403141F480311160516821F4807130
:102410005160916821F4403191601A6822F4405271
:1024200042F480521A605A6822F040025A609A6858
:1024300022F440529A601A6822F4404242F48042E8
:102440001A605A6822F080025A609A6822F4404268
:102450009A60704700100240000400480A4B1B6855
:102460000A4AA2FB03239B09013BB3F1807F0AD2F6
:102470004FF0E0225361064BF02183F82310002334
:10248000936107231361704764000020D34D6210ED
:1024900000ED00E008B5FFF715FFFFF793FFFFF72A
:1024A000DDFF08BD014B1868704700BF9808002089
:1024B000024A136801331360704700BF9808002078
:1024C000FEE7FEE7FEE7FEE7FEE77047704770476E
:1024D00008B5FFF7EDFF08BD70B50E4615460024A0
:1024E00003E0305D00F0B6F80134AC42F9DB284679
:1024F00070BD002070474FF0FF30704700207047DC
:102500004FF400534B6000207047012070470000DB
:102510000346064A126822B1044A10680344136055
:102520007047024A02491160F6E700BF9C0800208C
:10253000A00800201A4A136E43F480431366194B17
:102540001A6822F4405242F400521A601A6A22F0C9
:10255000706242F0E0621A621A6822F4404242F469
:1025600000421A601A6A22F0704242F0E0421A6297
:102570000D4B00221A6002290ED000230A4A536034
:1025800000239360094B1B6803EB5003B3FBF0F08F
:10259000D0600D23136070474FF40053EEE700BF87
:1025A0000010024000040048003801406400002090
:1025B0001C4A936D43F4003393654FF090431A68BF
:1025C00022F0300242F020021A601A6A22F470628D
:1025D00042F4E0621A621A6822F0C00242F08002FD
:1025E0001A601A6A22F4704242F4E0421A620E4BF8
:1025F00000221A60022912D000220B4B5A604FF4BD
:1026000080529A60094A126802EB5002B2FBF0F065
:10261000D8600D221A605A6A0E221A6270474FF46F
:102620000052EAE70010024000440040640000202D
:1026300008B50378012B02D0022B05D008BD017A22
:102640004068FFF777FFF9E7017A4068FFF7B0FFCE
:10265000F4E70000034BDB6913F0800FFAD0014B65
:102660009862704700380140034BDB6913F0800F1C
:10267000FAD0014B9862704700440040F8B5064616
:102680000F461546002404E0385DFFF7E3FF0134F0
:10269000A4B2AC4205D2012EF6D0385DFFF7E4FFBC
:1026A000F5E7F8BD012804D0044BD869C0F3401009
:1026B0007047034BD869C0F3401070470044004096
:1026C00000380140012803D0034B586AC0B270475C
:1026D000024B586AC0B270470044004000380140C5
:1026E00000B54FF0000E10E011F80E3083EA102311
:1026F00083EA1313000280B2184380EA431C1803D4
:1027000080B28CEA00000EF1010E7245ECD85DF843
:1027100004FBF8B51C46069F5D1C9E1DB6B2BDF8B5
:102720001C309E4228D89446ADB2B5F5806F25D2B4
:10273000AA233B70AB019BB2E1B1012213437B7032
:102740001B0ABB70F8703CB1BCF1000F04D02246EC
:102750006146381DFDF7ACFD221D92B239460020BE
:10276000FFF7BEFFEB1CF8540435C0F30720785583
:102770003046F8BD0022E1E70026F9E70026F7E73A
:1027800008B5012101E0013189B2B0F804348B426F
:1027900002D9425CAA2AF6D18B4203D80023A0F8C2
:1027A000043408BD5B1A9AB2A0F804240144FDF772
:1027B00019FEF6E72DE9F04700230B70B0F804642A
:1027C000022E51D904460D464778837847EA0327FD
:1027D000BA0902F1FF391FFA89F940F2FE3399452F
:1027E00027D802F10508464541D3A8F1020310F8A5
:1027F00003A008F1FF33C35C4AEA032A033201460F
:102800000020FFF76DFF824519D1E37884F8063484
:1028100007F0010784F80774A4F80894B9F1000FD1
:1028200014D1A6EB0806B6B2BEB9A4F80464012020
:102830001BE0FFF7A5FF01232B70002015E02046C9
:10284000FFF79EFF01232B7000200EE04A46211D5A
:1028500004F20A40FDF72CFDE3E7324604EB0801E1
:102860002046FDF7BFFDE0E70020BDE8F08700202F
:10287000FBE708B540F608020021FDF72FFE08BD72
:1028800010B582B00446B0F80434CBB140F2034234
:10289000934220D85A1CA0F80424C15400238DF878
:1028A00007300DF107012046FFF784FF024650B9BB
:1028B0009DF80730DBB1B4F80434002BEED102E010
:1028C000AA2903D00022104602B010BD01700123D6
:1028D000A0F80434F6E70023A0F80434AA2901D0B4
:1028E0000022F0E701700123A0F80434F8E71A464B
:1028F000E9E700B583B00192009100231A4619461A
:10290000FFF707FF03B05DF804FB10B582B0BDF818
:1029100010400194009313460A460121FFF7F9FE87
:1029200002B010BD034AD2F8883043F47003C2F8F5
:102930008830704700ED00E00D488546FFF7F2FF54
:102940000C480D490D4A002302E0D458C45004330A
:10295000C4188C42F9D30A4A0A4C002301E01360E0
:102960000432A242FBD3FDF77FFCFFF74FFBFEE7EB
:10297000008000200000002068000020B82C000823
:1029800068000020A0080020FEE70000F8B500BFA6
:10299000F8BC08BC9E467047F8B500BFF8BC08BC40
:0429A0009E46704798
:1029A4000100000000C2010001000000020000005C
:1029B40000100E00010000000400002000000000D0
:1029C4000000000000000000000000000000000003
:1029D40000000000000000000000000000000000F3
:1029E40000000000000000000000000000000000E3
:1029F40000000000000000000000000000000000D3
:102A040000000000000000000000000000000000C2
:102A14000000000000000000000000000D0A3D3D21
:102A24003D20534633302F44204C69444152206C9E
:102A340069766520726561646F7574203D3D3D0D56
:102A4400000000004465627567203A2055534152E6
:102A54005431205042362F504237204020256C7587
:102A640020626175640D0A0053656E736F723A20BB
:102A7400555341525432205041322F50413320405B
:102A840020256C7520626175640D0A004552524F11
:102A9400523A2068616E647368616B65206661698F
:102AA4006C656420286E6F2050726F6475637420A7
:102AB4004E616D6520726573706F6E7365290D00CC
:102AC40048616E647368616B65204F4B3A20222520
:102AD40073220D0A000000005741524E203A206331
:102AE4006F756C64206E6F74207265616420434D51
:102AF40044203739202873657269616C206F7574BE
:102B04007075742072617465290D0000434D442072
:102B140037392073657269616C206F7574707574D0
:102B240020726174652028636F6E666967757265CB
:102B34006429203A20257520487A0D0A00000000F7
:102B44004552524F523A206661696C656420746F35
:102B540020737461727420434D44203430207374A4
:102B64007265616D0D00000053747265616D696E6C
:102B74006720434D44203430202866756C6C2D73D7
:102B8400706565642064697374616E6365292E20C1
:102B94005265706F7274696E67206576657279200C
:102BA4003120732E0D0000002D2D2D2D2D2D2D2DBA
:102BB4002D2D2D2D2D2D2D2D2D2D2D2D2D2D2D2D41
:102BC4002D2D2D2D2D2D2D2D2D2D2D2D2D2D2D2D31
:102BD4002D2D2D2D2D2D2D2D2D2D0D005B25346C02
:102BE400752E2530336C75735D206366673D25351E
:102BF4007520487A20206D6561733D25356C7520FC
:102C0400487A2020643D25356420636D2020706B54
:102C140074733D256C750D0A000000005B25346C4F
:102C2400752E2530336C75735D206366673D2535DD
:102C34007520487A20206D6561733D25356C7520BB
:102C4400487A20202877616974696E6720666F72FC
:102C54002064617461290D0A000000002A4E1527C2
:102C64008A13C509E204710238019C004E00270052
:102C7400232D302B20000000686C4C0065666745EE
:102C84004647000030313233343536373839414223
:102C94004344454600000000303132333435363782
:0C2CA4003839616263646566000000005E
:042CB00049020008CD
:042CB40021020008F1
:102CB8000400002000000000002A0008E0290008A5
:102CC800C02900080000000000000000000000000B
:102CD80000000000000000000000000000000000EC
:102CE80000000000000000000000000000000000DC
:102CF80000000000000000000000000000000000CC
:102D080000000000000000000000000000000000BB
:082D1800000000000024F4009B
:04000005080029398D
:00000001FF
